:020000041000EA
:10000000002008205B0100101B0100101D010010E2
:100010001101001011010010110100101101001058
:100020001901001019010010190100101F01001022
:10003000110100101901001021010010230100100E
:100040001101001011010010110100101101001028
:100050001101001011010010110100101101001018
:100060001101001011010010110100101101001008
:1000700011010010110100101101001011010010F8
:1000800011010010110100101101001011010010E8
:1000900011010010110100101101001011010010D8
:1000A00011010010110100101101001011010010C8
:1000B00011010010110100101101001011010010B8
:1000C00011010010110100101101001011010010A8
:1000D0001101001011010010110100101101001098
:1000E0001101001011010010110100101101001088
:1000F0001101001011010010110100101101001078
:100100001101001011010010110100101101001067
:10011000EFF30580103800BE00BE00BE00BE00BE7A
:1001200000BE00BEF2EB88713C8D0010688D00109F
:100130009C01001090A31AE7D3DEFFFF42012110BB
:10014000FF01000018BB0000793512AB00201E49EA
:10015000086006C881F3088810474FF050400068D7
:1001600008B10020F3E70DA40ECC002902D000F066
:1001700012F8F9E71549164A002000E001C1914242
:10018000FCD114498847144988471449884700BE60
:10019000FDE701C901C29A42FBD37047688D001088
:1001A00010010020182C002070B80010000008205A
:1001B00064010820D4B90010001008207C12082027
:1001C000000000007047000008ED00E0182C00203F
:1001D00048EE0220C93A0010E1010010C13A0010B7
:1001E0002DE9F0410E2086B001F01EFD0A2001F03D
:1001F0002FF8514805AB04AA03A901F011FC18B966
:100200004D494E4800F0E2F80124DDE904120027D0
:10021000039801F041FB4A4D03F0B8FD494803F053
:10022000FFFD042206210223CDE90074464803F0B5
:1002300075FE2B68DFF83481986807F00BFE3946AD
:10024000384606F0E7FA6FF07F41204606F0E2FA02
:100250004FF47F01022006F0DDFA4FF47F410320C6
:1002600006F0D8FAFF21042006F0D4FA0520374919
:1002700006F0D0FA4FF6FF71062006F0CBFA4FF0E9
:10028000FF11072006F0C6FA4FF416322146304817
:1002900008F0DEF906F0DAFA4FF4F0724FF4A071CC
:1002A0002B4806F08DFA2B4807F094F92A4803F002
:1002B000B7FD2B68294D986807F0CCFD18F807604A
:1002C0004FF000043146B6FA86F64FF4163276093E
:1002D0001F4808F0BDF94FF4A07231461C4808F0E1
:1002E000B7F94FF4A07231461D4808F0B1F94FF448
:1002F000A07231461B4808F0ABF94FF4A0723146AA
:10030000194808F0A5F966F30704114B66F30F24AA
:10031000A3F83E411C8003F5A073AB42F8D101372E
:100320007B4203F007034FF4FA7007F0070758BF4A
:100330005F4200F08DFFC1E760D8030054870010D2
:10034000042A0020D8860010F486001000FFFF0069
:10035000D8360020490F002028870010D88E0220B0
:1003600018380020588C0220988D0220848A0010B2
:100370004FF4807C0C4B00B553F8202003EB800336
:10038000C00082F0400200F1804003F5805E02F080
:10039000C00200F5203003F54053CEF80020416044
:1003A000C3F800C000BD00BF04800340C00000F1DE
:1003B0008040043000F520331B6800F5243083EAC8
:1003C000013303F440530360704700BF0FB400B51E
:1003D000084883B003F024FD049B3BB105A91846EF
:1003E000019103F015FB044803F01AFD012003F00E
:1003F00027FB00BF88870010808A0010EFF3108071
:1004000072B6064BD3E8CF1F01220029FAD1C3E808
:10041000412F0029F6D1BFF35F8F7047479102202B
:100420000023034AC2E88F3F80F31088704700BF63
:100430004791022070B51646EFF3108472B6DFF8CC
:1004400048E0DEE8CF2F0123002AFAD1CEE8423F70
:10045000002AF6D1BFF35F8F012301F0070CCA0811
:1004600003FA0CF310F802C01CEA030508D14CEAA9
:10047000030C00F802C0CEE88F5F84F3108870BDD3
:100480003046FFF7A3FF00BF47910220F8B50F46A3
:100490001946EFF3108672B61C4DD5E8CF4F0123F5
:1004A000002CFAD1C5E8443F002CF6D1BFF35F8F92
:1004B0008A421BD8012402E00132914222D3D308A0
:1004C00010F803E002F0070C04FA0CFC1EEA0C0F13
:1004D000F2D14EEA0C0E00F803E010460023C5E806
:1004E0008F3F86F31088984207DBF8BD0023C5E8EC
:1004F0008F3F86F310884FF0FF30002FF5D006981D
:10050000FFF764FF4FF0FF30E8E700BF479102209C
:10051000044A1078431CDBB2182B28BF1023137039
:10052000704700BF0825002000B5DFF81CC083B06D
:1005300001461F231822CDF800C00248FFF7A6FF8E
:1005400003B000BDA0B20220988700104FF0E02257
:10055000936843F000539360704700BF0021044B41
:1005600003F12002C3E88F1F01339342FAD1704791
:100570003C9102204FF0E0234FF08032C3F800247A
:10058000C3F80424C3F80824C3F80C24C3F81024C7
:10059000C3F81424C3F81824C3F81C24C3F8202477
:1005A000C3F82424C3F82824C3F82C24C3F8302427
:1005B00062B67047012300F01F029340400941B129
:1005C000800000F1604000F56140C0F880310360B8
:1005D0007047024A203042F82030704700E100E0C6
:1005E0000123064A410952F8212000F01F008340F0
:1005F000134214BF01200020704700BF00E100E05B
:1006000001224309034900F01F008240403341F8B2
:100610002320704700E100E0054A10309268054B46
:1006200052F82000C01A47288CBF002001207047D4
:1006300000ED00E00C25002008B5EFF3108E72B637
:10064000134BD3E8CFCF0122BCF1000FF9D1C3E89F
:100650004C2FBCF1000FF4D1BFF35F8F0D4A103067
:100660009268DFF834C052F82020624501D09142F0
:100670000BD1084A926842F82010BFF35F8F002226
:10068000C3E88F2F8EF3108808BD01F0C5FB00BFB3
:100690004591022000ED00E0110100102DE9F84F16
:1006A0008B461146EFF3108872B6664FD7E8CF2F0E
:1006B0000123002AFAD1C7E8423F002AF6D1BFF34E
:1006C0005F8F614B93F90040002CC0F2B88000F1BD
:1006D00010055E4804EB440900EB890296794FEA65
:1006E00089091E705A4B9B6853F82560331A472BB3
:1006F00035D826F0010E9EF807308B4209D86FE0FE
:100700000CEB4C0300EB830393F807A08A4551D907
:100710009E469EF906C0BCF1000FF1DA4BF6015976
:100720000EF1040A131FA3EB0A03C3F34A036FEA93
:10073000C3436FEAD3438EF80640DFF820A104EBF1
:10074000440400EB8402AEF8043040F824A0A2F880
:10075000049082F806C0D171C2F808B01DE03D4B8C
:100760009E426CD13C4BD17109F102010144043B22
:100770005B1AC3F34A036FEAC3434FF421416FEAA4
:10078000D34320F809105380FF214BF60153C2F8E0
:1007900008B09171938042F001062D4B9B6843F89D
:1007A0002560BFF35F8F0023C7E88F3F88F3108871
:1007B000BDE8F88FF2466FF00703A3EB09033AF8A0
:1007C000049F1B1A49F30A0909F102090AEB4909B6
:1007D0009944C9F34A096FEAC9496FEAD949A1E7BF
:1007E0006FF00703D1711C4909F102040444043974
:1007F000091BA3EB0903C1F34A011B1A6FEAC141AC
:100800007344C3F34A036FEAC3436FEAD1414FF421
:1008100021466FEAD3435180104920F80960938044
:100820004AF6AA2473461B1A5B415C43240DC2F8A6
:1008300008B0947142F00106CEF80010ADE701F067
:10084000EBFA00BF459102203FEE02200C2500206C
:1008500000ED00E011010010542500200148804700
:100860002DE9F04782B0EFF3108572B6DFF8A8C12A
:10087000DCE8CF2F0123002AFAD1CCE8423F002A3E
:10088000F6D1BFF35F8F5E4B00F110049B6853F805
:1008900024205C4B9A423DD08A4249D0DFF87CE16B
:1008A000A2EB0E03472B35D8012743099B0000F02C
:1008B0001F0003F1604303F5614387401E689A46B9
:1008C000B946C3F88070BFF35F8FEFF30583DBB2E7
:1008D0001F467BBB0123834022F0010003EA060888
:1008E0008668B14208D181E003EB43030EEB83033A
:1008F0009E68B14225D0184690F90630002BF3DAF5
:10090000B1424ED05346B8F1000F17D0C3F88091D2
:10091000C3F800903A4B9B6843F82420BFF35F8FE5
:100920000023CCE88F3F85F3108802B0BDE8F08744
:100930001A46EFE79C42CDD001F06EFAC3F88090E2
:10094000E8E793F90660002E2CDB06EB46000EEB81
:10095000800180000190C8798F68D87191F90600F4
:100960009F60002898714FEA46072EDB898801981E
:1009700041F30A0100EB41016FF0070008317144B7
:10098000C01A0144C1F34A016FEAC1416FEAD14183
:1009900099801D49BB1908780EEB83030E7098717E
:1009A000B0E703469FB9FF2181714BF60151818069
:1009B000154E184637784AF6AA219F717346C01A19
:1009C00040414143090D31709CE71049E0E710496F
:1009D000104EC91A0839C1F30A306FEA00506FEAA5
:1009E000105046EA5101D98098808BE790F9066053
:1009F0000346002EA9DA002FE9D1024AD8E700BF4A
:100A000000ED00E0110100103FEE022001BDFFFFEC
:100A10005E25002000F8FFFF459102200C250020F4
:100A20002DE9F041EFF30583DBB29E46EFF310852D
:100A300072B62F49D1E8CF2F0123002AFAD1C1E89D
:100A4000423F002AF6D1BFF35F8FDFF8B48040F059
:100A50000106D8F808704AF6AA2357F82E70044603
:100A6000244AA41A644163431B0DB7425BB226D0EB
:100A700092F906409C4228D092F912409C422FD015
:100A800092F91E409C422DD092F92A409C422BD0D4
:100A900092F936409C4229D092F942409C4208BFCC
:100AA000052413D0144A002492F800C0137080F873
:100AB00006C0C1E88F4F85F31088BDE8F081D8F8F3
:100AC00008200E4C42F82E40ECE7002404EB4404CE
:100AD00002EB8402FF2494714BF601549480E1E709
:100AE0000124F3E70224F1E70324EFE70424EDE710
:100AF000459102200C2500203FEE0220110100103C
:100B000000ED00E000B5DFF824C083B00146052306
:100B10000022CDF800C00448FFF7B8FC0028A8BFA9
:100B2000C0F1330003B000BD44EE0220B4870010D2
:100B3000014B0B44036070473C91022070B5104C90
:100B4000104DAC420ED2FF26236863B1FFF7E0FCE4
:100B500001462046FFF7ECFFA680BFF35F8F083405
:100B6000AC42F1D370BDFFF7D3FC01462046FFF73E
:100B7000DFFF2671BFF35F8F0834AC42E4D370BD52
:100B8000082C0020182C002010B50446FFF7C0FCEC
:100B900001462046FFF7CCFFFF232371BFF35F8F91
:100BA00010BD00BF10B504460120FFF7BDFC034B8C
:100BB00003442360BFF35F8F10BD00BF3C91022050
:100BC000024B0B440360BFF35F8F70473C910220E0
:100BD00010490B68EFF3108072B6D3E8CFCF012233
:100BE000BCF1000FF9D1C3E84C2FBCF1000FF4D1D8
:100BF000BFF35F8F084A4FF0000C13780968013388
:100C00001370C1E88FCF80F3108840BF002000210F
:100C1000704700BF14C1022041EE02200000000016
:100C20002DE9F04F2DED028B85B0EFF30583DBB29C
:100C3000103B9A0818BF01224FF0010103F0030B8B
:100C400018BFA94CA94B08BFA94C0BEB820253F863
:100C5000225001FA0BF204F541539FEDA18B029251
:100C60005A602FE0AB88190440F19480AB79002BD7
:100C700040F0DE80B5F90860002EC0F21C816B697F
:100C800006EB460603EBC603D3E90267B7F1FF3F65
:100C900008BFB6F1FF3F0ED004EB8B01A36A0A69CF
:100CA000D21AF31A934205D30123226A03FA0BF3F3
:100CB000134200D10E61204600F0EEFBB042B94174
:100CC000C0F2F980B5F90860029B002EE363C9DB2E
:100CD000D5F8149006EB460A09EBCA07BB68204614
:100CE000D7F80C80019300F0D7FB019B984271EB81
:100CF0000801B7DBB8F1000FC0F2C080D7E90431BA
:100D00007C4A934200F0F8807A88B5F9080092B2E4
:100D100042EA0040984702460B4652EA030100F0BF
:100D2000AD80002B80F2CD800199B1EB020E68EB13
:100D3000030839F93A30C7E902E8002B92DB686909
:100D400003EB430200EBC202D2E90271BE4578EB2D
:100D5000010C4FEA430285DBAC462CF8083F06E065
:100D600003EB430100EBC1015A00D1E90271BE451A
:100D700078EB01011A4405DB30F9323000EBC20C8C
:100D8000002BEDDA29F83A30ACF80060AB88190492
:100D90003FF56CAF2B69EFF3108272B6D3E8CF0F3B
:100DA00001210028FAD1C3E8401F0028F6D1BFF383
:100DB0005F8F4FF6FF76A8880023296900B2AE80C6
:100DC000C1E88F3F82F310889842FFF64FAF074685
:100DD000A1466E6905F10808B5F9083007EB470E22
:100DE000002BC44606EBCE0215DBD2E90240AA4630
:100DF000019704E036F935309446002B09DB03EB0C
:100E0000430506EBC502D2E90271BC4270EB010159
:100E1000F0DA5546019FACF8007036F93E7026F8BE
:100E20003E30002FD8DAAB794C46002B3FF422AF8E
:100E30000023AB71B5F90860721C33463BD068697A
:100E400005F1080E03E08E465A1C3FF415AF03EB84
:100E5000430200EBC2014F889C463F0430F9323018
:100E6000F1D5664581ED028BEED0AEF800302989D0
:100E7000664620F83210A5F808C0E5E739F83A30A0
:100E80002B812B69EFF3108272B6D3E8CF0F0121CB
:100E90000028FAD1C3E8401F0028F6D1BFF35F8FC6
:100EA0006B88296929F83A3000236E80C1E88F3FAA
:100EB00082F31088D6E640BF05B0BDEC028BBDE8DA
:100EC000F08F20460393019200F0E6FA019A039B0B
:100ED00010EB020E43EB01082BE700BFAFF30080DD
:100EE000FFFFFFFFFFFFFFFF00800B40ECBB022076
:100EF00000000B40210C001008460B690391984735
:100F00000028BBD00399D1E9002306E738B5384B58
:100F10001C692CB1BDE838400A213648FFF708BEED
:100F20000321354800F0A6FA334D314BDD60FFF761
:100F3000EFFA324A4FF0504E024403202C4B4FF050
:100F40000F0C18701A61DEF800204FF6FF715A700E
:100F50005A69A3F802C014834FF00204A2F8484073
:100F60004FF00404A2F878404FF00504A2F8904036
:100F70004FF00604A2F8A8404FF00704A2F8C040C2
:100F80004FF00904A2F8F0404FF00A04A2F808411B
:100F90004FF00B04A2F820414FF00C04A2F83841A6
:100FA0004FF0010414864FF00804A2F8D840144C06
:100FB0004FF00D0E4FF00E0C9C6008249980A2F8A3
:100FC00050E1A2F868C1A2F8600011800D4A2C62BD
:100FD0000D49D360FFF730FB01210320FFF7EAFA48
:100FE0000A4B0A211C640348BDE83840FFF7A0BD46
:100FF0007825002014C1022000000B403C91022003
:10100000FFFF1000ECBB0220210C001000200B4061
:101010000048704778250020F0B583B09DF828403F
:101020001D46034654B9CDE9000200F03DFA019A8D
:10103000009B824265EB0101A1425BDB1969EFF382
:10104000108072B6D1E8CF6F0124002EFAD1C1E82A
:10105000464F002EF6D1BFF35F8FB3F902401F69F0
:10106000002C3EDBD3F814C004EB440E3CF83E10D9
:10107000002659800CEBCE01C7E88F6F80F31088F3
:101080004888C1E902250130C0F30E00012838BFAD
:101090000120089A48800A61099A40EA04404A619E
:1010A0001A69EFF3108172B6D2E8CF7F0125002FC5
:1010B000FAD1C2E8475F002FF6D1BFF35F8F9A885D
:1010C0002CF83E201A699C80C2E88F6F81F310884B
:1010D00001211C78DA68A14002F50153596003B080
:1010E000F0BD0023C7E88F3F80F310884FF0FF303A
:1010F00003B0F0BD204603B0F0BD00BFF0B516460A
:101100001F4602690346EFF3108072B6D2E8CF4F54
:101110000121002CFAD1C2E8441F002CF6D1BFF304
:101120005F8FB3F902101D69002945DBD3F814E085
:1011300001EB41023EF832400EEBC20C5C80002411
:10114000C5E88F4F80F3108805983546CCF810001D
:1011500006983E46CCF81400BCF80200CCE90256D2
:101160000130C0F30E00012838BF0120ACF80200A6
:1011700040EA0140D3F810C0EFF3108572B6DCE806
:10118000CF7F0126002FFAD1CCE8476F002FF6D190
:10119000BFF35F8FB3F804C02EF832C099801A698C
:1011A000C2E88F4F85F3108801211C78DA68A140CE
:1011B00002F501535960F0BD0023C5E88F3F80F36D
:1011C00010884FF0FF30F0BD03464089B0EB214F4F
:1011D0003ADD58690A1402EB420210B5D3F810C088
:1011E00000EBC200EFF3108E72B6DCE8CF4F0122A5
:1011F000002CFAD1CCE8442F002CF6D1BFF35F8F3E
:10120000428889B292B28A4207D000221B69C3E8A1
:101210008F2F8EF31088002010BD6FEA42426FEAD4
:10122000524242800121002218699971C0E88F2F33
:101230008EF3108893F800C0DA68084602F501536F
:1012400001FA0CF1596010BD0020704740787047DA
:101250002DE9F04383B0064600F026F94FF47A7387
:1012600004464FF0FF306FF00042E6FB0341A0421E
:1012700072EB01033ABF044615460D46A61F45F121
:10128000FF37B44275EB07033CBF0026374600F03A
:101290000BF9301A67EB0101012871F1000106DA40
:1012A0002046294603B0BDE8F04300F037B900F00E
:1012B000FBF8864267EB010100290ADB00211D4B88
:1012C000324600931C483B460191FFF717FF01305F
:1012D000E6D04FF0000E194ADFF868C01849536A8B
:1012E0009F4204D8906AB042DAD29F42D8D1DCF84B
:1012F0000030EFF3108072B6D3E8CF9F5FF00108A3
:10130000B9F1000FF8D1C3E8498FB9F1000FF3D15B
:10131000BFF35F8F0B785FFA83F8DCF80030C3E827
:101320008FEF80F310880878804500D120BF20BF60
:10133000D5E700BFD10B00107825002000000B403E
:1013400041EE022014C10220F0B5024685B0EFF351
:101350000585EDB2002D61D10B46424CD4E9000168
:10136000994208BF90424AD0CDE902233E4BDF6844
:101370001E78384600F090F806F1040C57F82CC09F
:10138000029A039BACEB000C101A63EB0101604561
:1013900071F1000133DACDE9022300F085F8029AF9
:1013A000039B824263EB0101002949DB2F492E4850
:1013B00000910195CDE90232FFF7A0FEDDE902328E
:1013C000011E3DDD2A48C4E90023446A9C4246D3FD
:1013D000806A904241D32448CDE90232FFF7F4FEFF
:1013E0002349029B486A98421CD314BF0120002065
:1013F0008B6A039A934228BF40F001000CE020BFA3
:101400001B49486A98420DD314BF012000208B6A03
:10141000934228BF40F0010005B0F0BD1448436A74
:101420008B4202D2002005B0F0BD14BF012300237F
:10143000816A914234BF184643F0010005B0F0BD07
:101440000B49486A9842EDD3C01A18BF01208B6A35
:10145000934228BF40F00100DEE79C42BBD120BF91
:10146000B9E700BF7025002078250020D10B0010BF
:1014700000000B4010B4054B054C064AA04214BFB7
:101480001846581C10BCFEF7D5BF00BFA4B20220FE
:1014900000800B40D08700100346416A0A46986AD4
:1014A000596A8A42FAD17047034B596A0A46986AC8
:1014B000596A9142FAD1704700000B4000B58E4640
:1014C000154A536A9C46916A536A6345FAD140189B
:1014D00053EB0E034FF0000228BF0122BAB10E4BAE
:1014E0005A6A531C08BF104608D04FF0FF33184605
:1014F00009494A6A9A42FCD39A4207D1064B02E054
:10150000596A914202D1996A8142F9D300BD024AD7
:10151000526A9342ECD8EFE700000B40074A536A47
:101520009942FCD8994207D1044B02E05A6A914291
:1015300002D19A6A9042F9D8704700BF00000B4070
:1015400030B50D4683B0194604460192FFF7F0FA14
:101550000023019A2946E281A581A360501C00F076
:10156000DDFE6060003818BF012003B030BD00BF51
:1015700070B504464FF0000E214D0BE02B78226829
:10158000DBB2C2E88FEF86F310882A78934200D14D
:1015900020BF20BF2368EFF3108672B6D3E8CF0FC9
:1015A00001220028FAD1C3E8402F0028F6D1BFF36A
:1015B0005F8FB4F80EC0208963890CF10102C31A51
:1015C0001A4433EA230328BF13466345D6D0A289C1
:1015D000636802FB003007F033F800212389E289B9
:1015E00001339BB29A4238BF0B462A7823810132DD
:1015F0002A702268C2E88F1F86F3108840BF70BD32
:1016000041EE022070B50446244D2368EFF31086A6
:1016100072B6D3E8CF0F01220028FAD1C3E8402FD9
:101620000028F6D1BFF35F8FB4F80AC02389B3EB6B
:101630000C030DD48BB92A782068D2B2C0E88F3F52
:1016400086F310882B789A4200D120BF20BFDCE7B8
:10165000E28901321344002BEDD041B10846A28942
:10166000616802FB0C1106F0EBFFB4F80AC0E389D5
:101670000CF1010C1FFA8CFC634538BF4FF0000CD5
:101680002B78226801332B70A4F80AC00023C2E82B
:101690008F3F86F3108840BF70BD00BF41EE02202F
:1016A00070B5044682B006200E4600F0EFF8002820
:1016B00044D0384A3848944214BF4FF080624FF00B
:1016C0000062364B364902601A608D6832EA0505C1
:1016D000FBD1304A4FF48070A21AB2FA82F231493B
:1016E000520921F81200062000F0D0F8C200B2FB27
:1016F000F6F20132D10923D1402601236362A162AF
:10170000256BEB0725D42346002153F82C2F062008
:1017100003F5805211602563019200F0B7F840F2A2
:10172000013503218000B0FBF6F0E36A019A83F0F3
:10173000700303F07E0313602563A16402B070BDE3
:101740004FF6FE7081421DD929464FF6FF73164EA3
:10175000D4E740F2013204F540531A63636AA26A87
:10176000062002EB8312019200F090F80F4B019AD1
:10177000A3FB00139002DB0AB0FBF3F00021FFF79C
:101780009DFEC0E7C2F345020B4602EB81161146EF
:10179000B4E700BF00800740002002400030024054
:1017A0000000024020EE0220C0FF3F00757B2B8F1F
:1017B00000EB400C4FEA8C0C0CF1804C0CF5803C9B
:1017C00070B51E46DCF80430041FB3F5803F38BF07
:1017D0004FF48033E4B238BFCCF80430012C2ED95A
:1017E0004FF40065284B0CF5405ECEF8005053F8DE
:1017F00020E0BEF1000F17D1DCF800E0012C8EEAEA
:10180000421202F0E0020CF5805ECEF800202BD9E7
:101810004FF4006143F820604FF480330CF5005220
:101820001160CCF8043070BD5D69B5FBFEFE0EF1B1
:10183000010E0EEB4E0EBEF1030EFCD2DCE70129C9
:10184000CED103240CF540531C60DCF80830DB07D4
:10185000FBD5DCF800300CF5805E83EA421303F020
:10186000E003CEF80030084B0122DCF800404C4089
:1018700004F00304CEF8004002FA01F1DCF808207D
:101880000A42FBD0C4E700BFACB20220014B53F8C0
:1018900020007047ACB202202DE9F041584C0646BA
:1018A000206C1746B0F5803F38BF4FF480320B46AE
:1018B0004FF0030184B038BF2264524A504CD163C8
:1018C000626CD207FCD5E26B4F4982F0200202F035
:1018D000E002CA63E26B4A4C82F0010202F00302AA
:1018E000CA63626C9507FCD54FF400614FF48038F1
:1018F000464A474DD163474A03936A610121324604
:10190000C4F840804448009700F046F94FF4006165
:10191000039B07FB03F3B6FBF3F6636B434538BF4A
:10192000C4F83480374B2A6919633AB16B69B3FB49
:10193000F2F3013303EB4303033BFDD23049324A58
:101940000B6B03F0E00313630B6B83F0020303F0F4
:10195000030313638B6B5807FCD54FF400644FF4FB
:1019600080332A4A14632D4A4B632A610A6C244C43
:101970009A424FF0030238BF0B64224BDA63636C68
:10198000DA07FCD5E36B204A03F0E003D363E36B93
:101990001B4983F0010303F00303D3634B6C9B07E4
:1019A000FCD54FF480334FF40064184A6E61D46361
:1019B0000B64CA6C9A4238BFCB644FF40061114B80
:1019C000AA6999643AB16B69B3FBF2F3013303EB93
:1019D0004303033BFDD24FF400604FF48031084ACB
:1019E000094C936C83F0400303F0E003A364074BBE
:1019F000084CAC619864D16404B0BDE8F08100BFCC
:101A00000000014000300140001001400020014072
:101A1000ACB20220006CDC0200000540001BB700E5
:101A20002DE9F04F4FF4A078964685B00391DFF88A
:101A300064915649019349450AD908F1FF38A1F547
:101A40003B51B8F10F0FA1F12001F4D1002066E065
:101A5000072301F53722029103FB03F102F5D87247
:101A6000B2FBF1FA82454FF0010C4FF002074FF044
:101A700003064FF004054FF005043FD0B3F1010A0F
:101A800000F082800AFB03F1B2FBF1FB584549D01C
:101A90001CB303FB04F1B2FBF1FB58454BD0E5B19D
:101AA00005FB03F1B2FBF1FB58454DD0AEB106FB8F
:101AB00003F1B2FBF1FB58454FD077B107FB03F1BF
:101AC000B2FBF1FB584551D0BCF1000F05D00CFB27
:101AD00003F1B2FBF1FB83454DD0534603FB03F109
:101AE000B2FBF1FA824504F1FF3405F1FF3506F14E
:101AF000FF3607F1FF370CF1FF3CBFD101FB10218E
:101B00000029BBD172461F46DDF80CA001202049F8
:101B100001FB08F1CAF800101360019B1F6005B0BB
:101B2000BDE8F08F01FB10210029B1D15746724664
:101B3000DDF80CA0EAE701FB10210029AFD17246C5
:101B40002746DDF80CA0E1E701FB10210029ADD10B
:101B500072462F46DDF80CA0D8E701FB10210029C2
:101B6000ABD172463746DDF80CA0CFE701FB102160
:101B70000029A9D1DBE701FB10210029ADD1724674
:101B80006746DDF80CA0C1E7029956E750262F0002
:101B9000001BB70050F80C0010B5029C8E464FEAAF
:101BA000043C4CEA034C1C4BB3FBF1F30168B2FB61
:101BB000F3F4002920DB194A194B904214BF4FF46B
:101BC00080424FF4004217491A6003F580531A60AF
:101BD0008B6832EA0303FBD1212200F54053043322
:101BE000C0F800E084601A600268002AFCDA08226B
:101BF000C0F80CC01A6010BD036803F03F037345C2
:101C0000D9D18368C3F30B03A342D4D1C36803F4CF
:101C1000EE236345CFD110BD001BB7000080054007
:101C200000200240000002400A4B0B490B4A596059
:101C3000D3681904FCD40A4BD26843EA001309495B
:101C4000534009481940054AC160D3681B04FCD4BD
:101C5000704700BF002010400020FE5A00001040D6
:101C60000000FE5AF001FE5A001010404FF0804C68
:101C7000214B00B5C3F800C0002839D0DFF888C078
:101C8000A3F54053C3F81CC0DFF880C040F001004A
:101C900080EA0C0CC3F820C0596298624FF0804E65
:101CA0004FF0E061144B1548DFF864C0C3F800E062
:101CB000C0F808C019602AB94FF00042A3F580535C
:101CC0001A6000BD4FF47A7303FB02F2B2F1807F19
:101CD0002ABF6FF07F4313461A464FF08041DFF86A
:101CE00034C00748CCF80030064B4260196000BD94
:101CF000034BD861D2E700BF00B00D4000A0014007
:101D000000800D4000A00D40D3C007B02D3FF84F1C
:101D1000F3FFFF01DCB70220012300EB400080004D
:101D200000F1804000F5841041600360704700BFFF
:101D30004FF0000C30B5134683B004460D46BCF896
:101D40001620002141E800F101934B0254BF1021FD
:101D5000042144F25220904786462A460A21204612
:101D6000F446019B03B0BDE8304060470023DB8AA6
:101D7000002242E800F2520201D410211847042147
:101D8000184700BF002808B50EDB52B941F020010A
:101D90000023DB7C022B0AD002464FF48170FFF750
:101DA000C7FF41F03001F3E78B06F5D5F0E70246B7
:101DB0004FF49170FFF7BCFF034AD2F82838002B8C
:101DC000FBD0BFF35F8F704700000E400021044B33
:101DD000044ABFF35F8F43F8041B9342F9D1704765
:101DE0000C080E402C080E404FF42A6C4FF48D70F6
:101DF000054A064B0649C2F800C0D0601960536816
:101E0000002BFCDA704700BF0080044000A00440B3
:101E100000B0FA00704700BF08B50148FEF7D6FAD7
:101E2000F487001038B5054C054DAC4204D254F887
:101E3000043B9847AC42FAD338BD00BF90860010EF
:101E4000D486001038B5054C054DAC4204D254F888
:101E5000043B9847AC42FAD338BD00BFBC860010A3
:101E6000D48600100648DFF828C0064B064A07490A
:101E7000C0F800C01A608B6832EA0303FBD17047D8
:101E80000020024000300240F6FFF3030000024051
:101E90007F3BEFEF044BDB6CB3F5004F03D14FF406
:101EA0008022024BDA64704700001150002011506C
:101EB0004FF0E022044BD2F8881D0B43C2F8883D56
:101EC00010EE3004704700BF030330006FF0604134
:101ED000044B054A19609368DB4333F06043FAD141
:101EE000704700BF003002400000024010B545F2CC
:101EF0005320FFF73BFFBDE810400346042018477E
:101F000010B545F25320FFF731FFBDE810400346FE
:101F100001201847FEF722BB1349144B70B55C1A19
:101F2000A508442D2A4628BF4422114E920030466F
:101F300006F086FB432D13D80E4A0FD0C5F144009E
:101F40003319410803EBC101C3E9002208338B4276
:101F5000FAD1C30704D520F00100054446F8252036
:101F6000054B9E6070BD00BF000000101001001006
:101F7000000000201101001000ED00E0002370B50A
:101F80002B4C82B0C4F88430FFF72EFF0122294B7E
:101F9000DA63636C012BFCD10321264A244B1163C5
:101FA0009C6B012CFCD10226052521460523224AE3
:101FB00022480096FFF7F0FD21462B46204A214893
:101FC0000095FFF7E9FD0022042031461E4BFFF784
:101FD000EFFB2146284600221C4BFFF7E9FB0022BD
:101FE000082011461A4BFFF7E3FB00220920114697
:101FF000174BFFF7DDFB002206201146134BFFF7BE
:10200000D7FB0022114B07201146FFF7D1FB04201C
:10201000FFF73CFC00240F4BA3FB0035AD0CE0B2F6
:1020200029460134FFF778FE062CF8D102B070BDC6
:102030000000014000300140002F685900000540B9
:10204000008C864700800540001BB70080D1F00857
:10205000006CDC0283DE1B4386B003B451FC080431
:10206000CDE9020151FC0904CDE9040151EC0A0457
:10207000CDE9060103BCF047BDE800504EEC00C4BA
:10208000BDE800504EEC01C4BDE800504EEC02C467
:1020900000BD000000B5FFF7DFFF02E010FE30F4E6
:1020A000F8D441EC100443EC112400EE010410EECE
:1020B000010480EE200451EC1004704700B5FFF7D6
:1020C000CBFF02E010FE30F4F8D441EC100443ECF6
:1020D000112400EE010410EE210480EE200451ECE6
:1020E0003004704700B5FFF7B7FF02E010FE30F490
:1020F000F8D410B541EC100443EC112451EC040465
:1021000053EC0524A0FB024C5FF0000EE0FB03CE75
:10211000E1FB02CE4CEC20440024E1FB03E444EC60
:1021200030E480EE200451EC500410BD00B5FFF700
:1021300093FF02E010FE30F4F8D441EC100443ECBD
:10214000112451EC2104A0FB01126FEA820252FB20
:10215000100052FB12F252FB1000A0EBD07C53ECAB
:1021600004245CFB13F153EC1524A1FB022001FBBA
:10217000030053EC4424A2EB000050FB1CF24FEA96
:10218000111312EB017043EBE27140EA515020EA67
:10219000915020F0070053EC7524A0FB023C53EC57
:1021A000752400FB03CC01FB02CC53EC0424ACEB04
:1021B000824C40EA5C70A0F1010041EC400480EEEA
:1021C000200451EC7004704700B5FFF745FF02E0B2
:1021D00010FE30F4F8D440EC700400EE010410EE70
:1021E000210480EE200451EC3004704700B5FFF765
:1021F00033FF02E010FE30F4F8D440EC600400EE4F
:10220000010410EE210480EE200451EC30047047EC
:1022100000B5FFF721FF02E010FE30F4F8D441ECE6
:10222000800400EE010410EE010480EE400410EE84
:102230001304704700B5FFF70FFF02E010FE30F403
:10224000F8D441EC800400EE010410EE010480EEAD
:10225000400410EE3304704700B5FFF7FDFE02E0C6
:1022600010FE30F4F8D441EC100443EC112400EEDD
:10227000010410EE3004C0F30070704700B5FFF7A2
:10228000EBFE02E010FE30F4F8D443EC102441ECF5
:10229000110400EE010410EE30F48CBF0120002088
:1022A000704700BF00B5FFF7D7FE02E010FE30F424
:1022B000F8D443EC102441EC110400EE010410EEBC
:1022C00030F42CBF01200020704700BF00B5FFF79D
:1022D000C3FE02E010FE30F4F8D441EC100443ECED
:1022E000112400EE010410EE30F42CBF0120002078
:1022F000704700BF00B5FFF7AFFE02E010FE30F4FC
:10230000F8D441EC100443EC112400EE010410EE6B
:1023100030F48CBF01200020704700BF70B5044628
:102320000E460B4806F0B0F93146204605F09AF902
:102330000546074806F078F935B106FB0454054B0D
:102340009C4201D8284670BD0348FEF73FF800BF05
:10235000082C00200000082000880010704700BFF3
:102360002DE9F04F83B00F461146DDE90EB292071A
:102370009846DDE90C93064629D00D469BB109EB42
:10238000030405EB040A01950D460D93AAEB040224
:1023900014F8010D43463946B047A145F6D1294608
:1023A0000D9B019D1D440F9B9B070CD56C1AA345EB
:1023B00009D92A464346394620200134B0475C45B6
:1023C00005F10105F5D3284603B0BDE8F08F5B4564
:1023D00015D28A461C468946ABEB03050D4452468E
:1023E0004346394620200AF1010AB047AA45F6D1F2
:1023F00049462346DDF83090002CC0D1E3E70D4676
:10240000002BBCD1DFE700BF2DE9F04F0F460F993D
:1024100006469DF82C008D079046DDE90CA29946F2
:102420008346099CDDF828C00E9B49D4002B42D17D
:10243000944545D201F0010504F1FF3E3020E64409
:1024400005E00CF1010C62450EF8010F02D9BCF158
:10245000200FF6D1002D00F08780634530D9601E33
:102460004FF0300E604405E00CF1010C9C4500F883
:1024700001EF25D0BCF1200FF6D1CD060ED54805D1
:1024800051D4624564D0634562D0BAF1100F4DD08B
:10249000BAF1020F55D0BCF1200F2DD12022CDE989
:1024A0000B310A924B464246394630460994BDE804
:1024B000F04FFFF755BF11F001052ED19445BBD366
:1024C000CD061ED54805E0D4BCF1000FD9D1BAF134
:1024D000100F5FD0BAF1020F74D030224FF0010C10
:1024E0002270BBF1000F12D1480742D52B2204F80D
:1024F0000C200CF10102D2E762460CF1010C3020F5
:10250000A054BCF1200FC9D0BBF1000FECD02D229C
:1025100004F80C200CF10102C1E798B3944503F1D3
:10252000FF3389D399E7BAF1100FB7D18D063DD5A6
:10253000BCF1200FB2D0582204F80C200CF1010C91
:10254000A9E7BCF1200FA9D062460CF1010C08E00C
:10255000BCF10102BBD0BAF1100F35D0BAF1020FB5
:10256000CDD16220A05496E7CD06CAD5480588D5BE
:102570008BE70A0749BF2022624604F80C200CF1C1
:1025800001028CE711F00C0F00D0013B9445FFF4E1
:1025900053AF62E78A0613D47822227030224FF0BC
:1025A000020C6270BBF1000F9ED0B0E7BCF1200FAF
:1025B0003FF474AF782204F80C200CF1010C6AE7A8
:1025C0005822EAE76222E8E78D06ACF1020004D562
:1025D0004FF0580E04F800E091E74FF0780E04F841
:1025E00000E08CE700B9704701F0D8BB10B1D1E929
:1025F00000311847704700BF2DE9F04F97B09DEDAF
:10260000207BDDE9225B8046894651EC170B9A4618
:10261000249B0C92079302460B468DED047BFFF73B
:102620001FFE002840F0E381DDE904014FF0FF3296
:102630006FF48013FFF726FE002840F0CB80DDE921
:1026400004014FF0FF32B24BFFF758FE002840F074
:102650009F80DDE90467AAA3D3E900233046394609
:10266000FFF74CFE002840F08280A7A3D3E90023A7
:1026700030463946FFF706FE002878D13046394605
:1026800000220023FFF7FEFD002840F098800D9007
:10269000079B302113F4806F08BF06250EAA2B4636
:1026A000A5F1200605E0013BB34202F8011B00F052
:1026B0006581092BF7D81E46ED1ADDE90401FFF705
:1026C000ABFD944B044603EBC60393ED007B8DED0D
:1026D000087BFFF77DFD02460B46DDE90401FFF7AD
:1026E000F1FCDDE90823FFF701FDCDE90A01FFF761
:1026F000A5FD0746FFF77EFD02460B46DDE90A0110
:10270000FFF7E0FC0022844BCDE90A01FFF7F6FD5C
:10271000002800F0888001373846FFF76BFD02463D
:102720000B46DDE90801FFF7C1FD08B100270134C0
:10273000002E00F088800DF13703DFF8F0C1581942
:102740000DE0ACFB0721C90801EB8102A7EB4202B7
:102750003032092F00F8012F40F2FB800F46202D68
:1027600006F1FF3605F10105EBD1202586E0079B38
:102770009DED047BCDE923B34946534640460C9A70
:102780008DED207B229517B0BDE8F04F00F080B9A9
:10279000079B494658074CBF042303234046219317
:1027A0005346079A48BF5D4CCDE922B258BF5C4CF6
:1027B0000C9A209417B0BDE8F04FFFF7D1BD3B460F
:1027C000324600200021FFF77DFC0123CDE9040102
:1027D0000D935DE7079B03F002029C07049200F053
:1027E000F4800C9F3D464F4E341D14F8010D2A46CF
:1027F00053464946C047A64205F10105F5D1049B61
:102800003C1D63B10C9D631B9B4508D92246534672
:10281000494620200134C047631B9B45F6D820461B
:1028200017B0BDE8F08F0022DDE90A013A4BFFF74F
:1028300029FD00287FF47CAF002F40F0C2800137D3
:10284000002E7FF478AF2046FFF7C2FC02460B460D
:10285000DDE90401FFF736FC00222F4B06460F4648
:10286000FFF710FD40B93046394600222A4BFFF7EA
:1028700045FD002800F0A1800DF137032A485919C1
:102880000EE080FB0476C2EBA60202EB8206A4EB0C
:10289000460630361446013501F8016F002A47D04C
:1028A000202D4FEAE472ECD1079A02F00302012ACC
:1028B00014D1BBF1000F11D00D9A002A60D00BF19A
:1028C000FF3BBBF1200F09D930222B4404E0013536
:1028D0005D4503F8012F31D2202DF8D1079B0EACB6
:1028E000CDE902B300945346494640460C9A0195FF
:1028F000FFF736FD0446204617B0BDE8F08F00BF55
:102900000000000065CDCD410000000065CDCDC1C7
:10291000FFFFEF7FF08A00100000E03F60880010AA
:10292000688800107088001067666666CDCCCCCCD5
:10293000079A02F00302012A00F09680202DCDD0E4
:102940000D9B3BB32D220DEB050383F83820013599
:10295000C4E7202D3FF409AF30212E445A1905E079
:102960000135202D02F8011F3FF4FFAEAE42F7D132
:102970002E226E44013586F838207FE720259CE61C
:10298000079A12F00C0F5AD00BF1FF3BAB459BD8C6
:10299000202DA3D0079B5A0706D52B220DEB05034C
:1029A00083F83820013599E71B0797D520220DEBD6
:1029B000050383F83820013590E7013424F0010441
:1029C0005AE7F9077FF5B4AE39E7BBF1040F7FF69C
:1029D00008AF0C9B1D46043B03EB0B072A465346EE
:1029E000494620200135C047AF42F7D1FAE6079BA0
:1029F00003F002029D07049225D00C9F3D46224E13
:102A0000F41C14F8010D2A4653464946C047A64215
:102A100005F10105F5D1049BFC1C002B3FF4FFAE32
:102A20000C9D631B9B457FF6FAAE224653464946F2
:102A300020200134C047631B9B45F6D8EFE6AB4529
:102A40003FF642AF4AE7BBF1030FD6D90C9B1D46B8
:102A5000033B03EB0B072A4653464946202001352A
:102A6000C047BD42F7D1C9E7BBF1000F3FF466AFE5
:102A70000D9A002A84D00BF1FF3B5D45FFF424AF93
:102A8000202D7FF45FAF29E76C8800100000000064
:102A90002DE9F04F9FB01E46DDE928ABDDE92B980C
:102AA0002A9B04460D460B920A9352465B465046BB
:102AB0005946FFF7D5FB002840F0C68050465946DE
:102AC0004FF0FF327B4BFFF719FC002840F0BC8031
:102AD000504659464FF0FF326FF48013FFF7D2FB98
:102AE000002840F0B1805046594600220023FFF7ED
:102AF000C9FB002840F0DD81CDE908ABDDE9081213
:102B000018F480600B460F4608F400610C92149193
:102B1000159040F0A880134340F0D080002940F089
:102B2000EC8106230A9318F00202109240F0DD8136
:102B30004B46042B38BF04230E920422043B12920E
:102B400014935046594600220023FFF79BFB0028B0
:102B500040F02A829DED087B149B0B9A03930A9BFD
:102B60008DED007B029328F40063049329463346DD
:102B70002046FFF741FD024618F0200F3346294654
:102B80000CBF6520452002F10108A047129B0DF102
:102B9000580A03F1FF3B0E9B002283EAE37C504678
:102BA000DFF814E10B9FACEBE37CD90FCDF820806C
:102BB00002E0202AC44610D0AEFB0C384FEAD808F9
:102BC00008EB8803ACEB430301303033BCF1090F51
:102BD00002F1010200F8013CEBD805234FF0000C94
:102BE00006930A23DDF82080CDE90121CDE9033CDD
:102BF000CDF800A03346424629462046CDF814B011
:102C0000FFF702FC109B8246D3B1A0EB0708C14539
:102C100016D907EB080233462946202008F101089F
:102C2000A047C145F5D87B1E4B44C7F10102A3EB79
:102C30000A035244914538BF00230AF1010A9A441D
:102C400050461FB0BDE8F08F334629462046CDE9F7
:102C500028AB0A9CCDE92B980B9A2A941FB0BDE8AB
:102C6000F04FFFF7C9BC57EA020329D100293FF40E
:102C70005AAF00230E930A9B0E9A934200F3BA8137
:102C800000275046594600220023FFF7FBFA002890
:102C900040F015819DED087B28F4006343F48063C8
:102CA0002C938DED287B334629462046CDE92A79A1
:102CB0000B9AD3E7FFFFEF7FCDCCCCCC06230A9352
:102CC0000C9BC3F30A50A0F2FF30FFF781FAB2A3C6
:102CD000D3E90023FFF70AFAB1A3D3E90023FFF7F2
:102CE000DDF90C9BCDE90E01C3F3130343F07F51D3
:102CF00038460022A24B41F44011FFF7E3F994A3B8
:102D0000D3E90023FFF7F2F902460B46DDE90E0195
:102D1000FFF7C4F9FFF780FA0E90FFF759FA8EA378
:102D2000D3E90023CDE90C01FFF7E0F90022954B30
:102D3000FFF7B4F9FFF770FA89A3D3E90023074638
:102D4000DDE90C01FFF7D2F9CDE90C013846FFF7B8
:102D50003FFA85A3D3E90023FFF7C8F902460B46E3
:102D6000DDE90C01FFF7AEF902460B46CDE90C2375
:102D7000FFF7BCF9CDE91001DDE90C0102460B4675
:102D8000FFF78CF90022CDE91201DDE910017E4B3D
:102D9000FFF7D0F900227D4BFFF780F902460B4682
:102DA000DDE91001FFF7C6F90022794BFFF776F94C
:102DB00002460B46DDE91001FFF7BCF9CDE9100131
:102DC000DDE90C2300204FF08041FFF77BF902463C
:102DD0000B46DDE91001FFF761F902460B46DDE91C
:102DE0001201FFF7A7F900226A4BFFF757F907F224
:102DF000FF3C00224FEA0C53FFF778F902460B46DE
:102E0000DDE90801CDE90C23FFF73CFA50B1DDE91B
:102E10000C010E9B0022013B0E935C4BFFF78AF9DD
:102E2000CDE90C01DDE90C010E9B02466333C62B94
:102E300008F002031093149B2DD8002B5FD00423BD
:102E400012930A433FF417AFDDE9080148A3D3E921
:102E50000023FFF73FFA48B1DDE9080146A3D3E9B3
:102E60000023FFF70FFA00287FF405AF0A9B002B21
:102E700051D0159A002A00F0AC80013B0A93129BB6
:102E8000994505D9109B002B00F0AF8002231093C9
:102E90000023149344E02BBBB9F1050F4FD908F080
:102EA0000203002B49D105231293A9F105031493C2
:102EB0003AE00BF10043CDF820A009931EE628F478
:102EC000006343F480632046CDE92A792C9333468E
:102ED000DDE908673446294607F10045CDE9284574
:102EE0000B9ABBE605231293ABE702220023109254
:102EF0000422149312920E9323E60527C1E6B9F13A
:102F0000040F1FD9109B002B77D104231293A9F132
:102F10000403149304E0129B99455FD80A9B149311
:102F20000E9B002B3FF40DAEDDE90801DDE90C231B
:102F3000FFF700F9CDE9080103E60223109305230A
:102F40001293F1E704231293EAE700BFAFF3008086
:102F500061436F63A787D23F71A379094F930A40FA
:102F60001655B5BBB16B0240EF39FAFE422EE63F73
:102F70002D431CEBE2361A3F0000000080842E41F6
:102F80000000F83F0000E03F00002C40000024401B
:102F9000000018400000F03FFB799F501344D33FDE
:102FA000B3C8608B288AC63F149BDDE908A703934A
:102FB0000A9B07F1004B029328F400630B9A0493D9
:102FC000294633462046CDE900ABFFF715FB024604
:102FD000D2E5129B994515D81492A1E7109B23B115
:102FE0000A9B1493022310939AE7129BA9EB030305
:102FF000149395E79B1A5F1E43E604231293022362
:1030000010938DE7109B002BEFD0022314921093A6
:1030100086E700BF2DE9F04F91469A4C9A4AB1F1EC
:10302000000A9BB018BF834614601878974ADDF8F1
:10303000908008BF9346002800F08A821D46002633
:10304000CDF8209008E032465146089BD84701361B
:103050002878002800F0C780252805F10105F2D165
:1030600000222B4613F8011BA1F1200010280AD8DA
:10307000DFE800F03F09093B090909090909093797
:10308000093309092F00A1F13000092840F2898095
:103090002A2900F0E98000242E2900F094800027DE
:1030A000A1F1680012282CD8DFE810F04E012B00A7
:1030B00049012B0040012B002B002B002B002B0083
:1030C0002B002B0027002B002B002B002B002B00AC
:1030D00027001D4642F00102C3E71D4642F00202EE
:1030E000BFE71D4642F00402BBE71D4642F0100256
:1030F000B7E71D4642F00802B3E7697842F48072F0
:10310000013367291D467ED8242940F2B880A1F1F9
:103110002503422B00F2B380DFE813F05101B10028
:10312000B100B100B100B100B100B100B100B10017
:10313000B100B100B100B100B100B100B100B10007
:10314000B100B100B100B100B100B100B100B100F7
:10315000B100B100B100B100B100B1001E013A01EF
:103160001E01B100B100B100B100B100B100B10069
:10317000B100B100B100B100B100B100B100B100C7
:10318000B100B401B100B100B100B100B100B100B3
:10319000B100B100B100B4015801B4011E013A01FF
:1031A0001E01002404EB840401EB440419781D463D
:1031B000A1F130000928A4F1300403F10103F1D991
:1031C0002E297FF46CAF69781846A1F13007092FDA
:1031D00042F4806240F225812A2900F032811D46A6
:1031E000002701335CE73446DDF82090B14501D873
:1031F00009F1FF364B46324651460020D84720465B
:103200001BB0BDE8F08FA1F16903DBB20F2B36D8FC
:10321000012049F2410C984010EA0C0040F0F48083
:103220000A2B35D0072B2AD158F8041B002940F06F
:10323000108122F0100412F4806144F0210400F0A7
:103240000A8112AA082305931023CDE900203246F3
:103250000694049703930023029351465846089B13
:10326000FFF7D2F80646F3E658F8044B6978002CCD
:103270001D46BCBF42F00202644201330CE708461F
:10328000E1E600BF15300010D8B702205D23001022
:1032900058F8049B002F99F8000014BF3B464FF0EC
:1032A000FF33002800F08283494603EB090C04E059
:1032B00011F8013F002B00F043818C45F8D1ACEBB5
:1032C0000901530540F12081B94228BF394612F067
:1032D000020300F083820223CDE909483246884682
:1032E000089C37440B9307E023465146D84719F80A
:1032F000010F013610B13246B742F5D10B9B414662
:10330000099CDDF82880002B3FF4A2AE37468C42A2
:103310007FF69EAE2644089C761A3A4623465146CE
:1033200020200137D847B742F7D191E669786C2958
:103330007FF4E4AEA97842F44072EB1CE1E66978D0
:1033400042F400720133DCE66978682900F0FB8002
:1033500042F080020133D4E6672900F0C980472992
:1033600000F0CD80452900F0CC80CDE9034208F182
:103370000708029728F007083246F8E80267514626
:10338000CDE900675846089BFFF782FB06465FE6DB
:10339000462908BF42F02002CDE9034208F10708A0
:1033A000029728F007083246F8E802675146CDE94F
:1033B00000675846089BFFF71FF9064648E6324665
:1033C00051462520089BD847013641E608F1040301
:1033D0009207099306F1010740F1C3803246514636
:1033E00098F80000089BD847012C40F2B48126448D
:1033F000089C3A462346514620200137D847B74219
:10340000F7D1DDF8248023E66F2974D040F24182A1
:10341000782900F086814FF00A0922F010024B460D
:1034200038E0002707EB870701EB4701A1F13007E0
:1034300010F8011FA1F13003092BF3D90546431CF5
:103440002EE658F8047BA97802356B1C27EAE7774B
:1034500026E642F0210412AA944602E020283FF416
:10346000F1AE01F00F03092B94BF303337330F292E
:103470008CF8003000F101000CF1010C4FEA111141
:10348000ECD8DFE6582966D0622940F089804FF0F9
:1034900002094B4612F4806C00F0D48022F00D0239
:1034A000099212F4007140F07B8112F4807008F1EF
:1034B000040940F03882510640F13A8198F8001032
:1034C000002940F04A81099A22F010020992BCF1C9
:1034D000000F00F04281084612AA0999CDE903378E
:1034E000CDE9054101900023009202933246A1E00C
:1034F00042F4006239E74FF008094B46CAE742F44C
:10350000006242F0200230E712F0020300F08C81EA
:103510000223CDE909481F468846089C32462346C7
:103520005146D84719F8010F01360028F6D13B461D
:103530004146099CDDF82880002B3FF489ADE5E683
:10354000A1EB0901BDE6A97842F0C002EB1CD8E569
:10355000044606464AE64FF0100942F020024B4668
:1035600098E7012C40F2F180374606F1FF39CDF89B
:103570002880DDF82080A1443A4643465146202069
:103580000137D8474F45F7D1DDF828803A4698F8FB
:1035900000005146089BD8472644DDF8248057E5B3
:1035A00012F4806300F0C1804FF4806322F01100B8
:1035B00010F4007E4AD110F4807C08F1040940F038
:1035C0003781410600F1A980020640F1E381B8F994
:1035D000002082EAE271A1EBE2711FFA81FED10FB5
:1035E0000991002A00F05F81734612AA9646DFF81F
:1035F000A0830A9403E0BCF1200F23460FD0A8FB60
:103600000314E40804EB8401A3EB41010EF1010E65
:103610003031092B0CF1010C0EF8011CEBD80A9C7F
:10362000099B0092CDE901C30A233246CDE905404A
:103630000497039351465846089BFEF7E5FEC8469B
:10364000064605E522F00C0209922AE708F1070870
:1036500028F00708D8F8042058F808CBD10F5CEA06
:10366000020E6CD0002A634602DA5B4262EB420231
:103670009146099312AA94464FF0000ECDE90A181C
:10368000CDE90C470E960F9203E0BEF1200F3B46AA
:1036900030D04FF0CC3213EB0901BD4F41F10001A6
:1036A000A7FB014626F0030404EB9604091B5C1AF1
:1036B00002FB04F63A4669F1000802FB086605229F
:1036C000A4FB077407F001082644A8FB024864180D
:1036D0000A2B0CF1010C4FEA570704F1300479F181
:1036E00000090EF1010E0CF8014C47EAC6774FEACB
:1036F0005609CAD27346DDE90A18DDE90C470E9E69
:103700000F9ACDF824E0CDE901310A230092CDE9EA
:1037100005403246049703939FE598F800209646AB
:103720005DE74FF010094B46B4E622F010003FE78A
:1037300011064CBFB8F80010D8F80010C0E6002BF6
:1037400040F042819946099394E73246514698F8F1
:103750000000089BD8473E4653E6099A0A9412F0A7
:10376000200F14BF4FF041084FF0610812AA944691
:10377000A8F10A0802E0202871460FD0B1FBF3FE41
:1037800003FB1E14092C94BF3034444499428CF836
:10379000004000F101000CF1010CECD20A9C9CE607
:1037A00008F1070828F00708D8F8042058F8081B83
:1037B0000A920A438E467BD1099A22F0100209929E
:1037C000BCF1000F74D0002012AA0999CDE90020A5
:1037D000CDE905413246CDE903373CE58C4298BF3F
:1037E00001317FF679AD4FF48063CDE909949946B4
:1037F000A2190B97089F541A32463B465146202087
:103800000136D847A642F7D1DDE90A474B46DDF835
:10381000249099F8000000283FF41AAC611C002B9A
:103820003FF477AE002357E58C42DED8013170E6D5
:10383000D8F80020D10F002A00F0B38082EAE273AA
:10384000A3EBE27312AA9446CDE90914DFF8408194
:1038500003E0BEF1200F23460FD0A8FB0314E408B9
:1038600004EB8401A3EB41010CF1010C3031092B75
:103870000EF1010E0CF8011CEBD8DDE909140A2346
:103880000092CDE905403246CDE901E1049703936A
:10389000D0E6692922F0100040F0918012F4806394
:1038A0003FF486AE80E6002B3FF49FAE12AAB7E647
:1038B000099ACDE90B8412F0200F14BF4121612138
:1038C000CDE90D76CDE90F3BCDF844A00027F046B9
:1038D0000A9C12AE0DF1480BA1F10A0A03E0202F59
:1038E00080460C4613D021464A460023404604F049
:1038F000C3FED2B2092A94BF30325244C84574F193
:103900000004327007F1010706F10106E7D23846DC
:10391000DDE90B845A460E9E0D9F0F9BDDF844A0F7
:10392000DDF840B051E7D8F800E0BEF1000F0DD14E
:1039300022F010020992BCF1000F07D012AA0998D8
:10394000CDE90337CDE905400191CCE5099A12F0A4
:10395000200F14BF4120612012AA94460A92A0F1C0
:103960000A0202E02029C6460FD0BEFBF3F803FB93
:1039700018E0092894BF303080189E458CF800006C
:1039800001F101010CF1010CECD20A9AD7E700BF5A
:10399000CDCCCCCCD8F8002082EAE27EAEEBE27E41
:1039A0001DE6002B3FF44EAF12AA68E712F48061C7
:1039B0000ED012F0020114D001463746A7E44FF0B2
:1039C0000A0902464B4665E5002312AA09939AE6C6
:1039D00012F002037FF49AAC002C7FF406AFFFF7DD
:1039E00037BB002C7FF4FFAEFFF732BB8C4610B51F
:1039F00084B000930290134602A94FF0FF320348AF
:103A0000CDF80CC0FFF706FB04B010BDED2500108B
:103A100010B5094A84B014684CB1034600914FF0C8
:103A2000FF3203A90548A047012004B010BD00F0F3
:103A3000F7F9204604B010BDD8B70220E5250010E4
:103A400000BEFDE7704700BF074A0346106838B163
:103A5000064903448B428CBF4FF0FF301360704720
:103A6000034908461160F3E7D4B3022000000820A0
:103A700048EE022038B9DFF814C008461146DCE9E8
:103A8000002300F037B94FF0FF307047908A0010E4
:103A9000431E012B09D810B5144608460123002205
:103AA000214600F0B1F8204610BD4FF0FF307047BE
:103AB0004FF0FF30704700BF4FF0FF30704700BF3E
:103AC00008B5FFF7BDFF00BF38B5064C064DFEF741
:103AD000A9F9AC4204D254F8043B9847AC42FAD35B
:103AE00038BD00BFD4860010D88600100368084691
:103AF0001146184770B505460846697D82B0002911
:103B00004FD0002A25DD037814460A2B064622D022
:103B1000012C4FF0000E0DD03246012312F801CFD8
:103B20001946BCF10A0F03F1010320D09C42F5D1E4
:103B3000744505DD2B68A4EB0E0106EB0E009847DB
:103B4000311911F8013CA3F10D03B3FA83F35B09BA
:103B50002B7502B070BD2B7D002BD9D102212B68B3
:103B600013489847012CEBD04FF0010ED4E712F820
:103B7000010C0D28DAD08E4506EB0E00A1EB0E01EC
:103B800005DACDE900322B689847DDE90032CDE94E
:103B9000003202212B6806489847009B019A9E46F6
:103BA000C4E711462B6802B0BDE87040184700BF5B
:103BB000408B00100B685A1C802A0B440A60187155
:103BC00000D0704730B50E4B0C46186883B0A0B1DA
:103BD0000D1D01E0006980B10368002BFAD0094B8C
:103BE0001B680BB18342F5D1294622680190FFF78B
:103BF00081FF019800690028EED1206003B030BD3C
:103C000008B3022028B302202DE9F04782B0904685
:103C10001C460D460746FDF747FC4FF0FF3C6FF092
:103C200000462E4A821841F10003944576EB0301C9
:103C30003CBF624633462A4804F006FD6B1C8246B0
:103C400040D00CB3274E284B1C68B4B1B8F1000F1C
:103C50001CD1DFF89C8001E0246974B12368002B3B
:103C6000FAD0D8F800300BB19C42F5D120462A4654
:103C70003946B0472469002CF0D1BAF1000F26D1A3
:103C8000284602B0BDE8F087184EDCE74FF00A097D
:103C9000DFF85C8002E02469002CEED02368002B62
:103CA000F9D0D8F800300BB1A342F4D12A463946F6
:103CB0002046B047012220460DF107018DF80790FC
:103CC000B047E8E7384604F0C3FA0546B9E70448C8
:103CD00004F0AAFC284602B0BDE8F08740420F007D
:103CE000102C0020F53A001008B30220ED3A001025
:103CF00028B302202DE9F84F06460D469346994613
:103D0000DFF85880DFF858A0134FD8F8004014B9F6
:103D100010E0246974B1DAF800300BB1A342F8D195
:103D2000A368002BF5D02946304698470028F0DDDF
:103D3000BDE8F88F7B6A994508D8BA6A5A4503D31B
:103D40006FF00100BDE8F88F9945F9D101200021FD
:103D5000FDF7B4FBD9E700BF00000B4008B3022019
:103D600028B30220084A136823B90AE003F11002BD
:103D70001B6933B18342F9D129B9186910601961FF
:103D8000704701B11060704708B3022008B500F019
:103D9000AFF900F079FB012008BD00BFF0B583B09A
:103DA00006468DF80700FDF77FFB4FF0FF356FF0FB
:103DB0000044174A821841F10003954274EB030155
:103DC0003CBF23462A46134804F03EFC124B0746EC
:103DD0001C689CB1114D01E024697CB12368002B63
:103DE000FAD02B680BB19C42F6D1204601220DF18E
:103DF0000701FFF77FFE2469002CEFD117B9304689
:103E000003B0F0BD034804F00FFC304603B0F0BD32
:103E100040420F00102C002008B3022028B30220DB
:103E200038B5044604F014FA012305461A46204624
:103E30002946FFF7E9FE084B1C682CB163682BB1DB
:103E400098472469002CF9D1284638BD2469002CF4
:103E5000F4D1284638BD00BF08B302202DE9F04157
:103E6000A2B00E460546FDF71FFB4FF0FF3C6FF07A
:103E70000044254A821841F10003944574EB030184
:103E80003CBF23466246214804F0DEFB0024334653
:103E900007462A461E4801A90194FFF7A7FD1D4EBB
:103EA000019B80463468BBB1002C2AD01A4D01E03A
:103EB000246974B12368002BFAD02B680BB1A3429C
:103EC000F6D12046019A02A9FFF714FE2469002CBE
:103ED000F0D12346346801932CB1636843B198470D
:103EE0002469002CF9D12FB9404622B0BDE8F081F9
:103EF0002469F1E7054804F097FB404622B0BDE88D
:103F0000F0810194EFE700BF40420F00102C002029
:103F1000B53B001008B3022028B302200FB400B54F
:103F200083B004A951F8040B0191FFF797FF03B088
:103F30005DF804EB04B07047B1F1000C1EDD104ACF
:103F4000104B126810B5D31AB3FA83F30D24DFF8BF
:103F500038E05B09411E3EF913E08C4411F8010F73
:103F6000864506D093699B06FCD461451060F5D167
:103F700010BD93699B06FCD41460F3E7704700BF43
:103F800024EE02200080074020EE0220244BB1F1F5
:103F9000000C00B5D3F800E02FDD0021214B0138E3
:103FA0001A689369DB0618D401319369DB06FCD4E7
:103FB00013688C4500F8013FF3D1BEF1000F09D022
:103FC00050211346916353F8342F02F0380203F561
:103FD00080531A606146084600BDBEF1000F09D04B
:103FE00050201346906353F8342F02F0380203F543
:103FF00080531A6081B1084600BDBEF1000F0BD09E
:10400000084B50211A681346916353F8342F02F07D
:10401000380203F580531A606FF00201DBE700BF3E
:1040200090B2022024EE0220054B1B6833B1002120
:10403000044A05481268006891631847704700BF3A
:1040400090B2022024EE022098B20220024B1A689D
:1040500093691B07FCD4704724EE022030B51F4D36
:104060001F4AD5F800C01F4C8E46944514BF21222C
:104070002222216883B010B1A9B103B030BD00295C
:10408000FBD0CCF838000146019010460092FCF7B6
:1040900091FA15490098FCF7E3FB019B134A236052
:1040A000136003B030BD114B20600F4910460092E1
:1040B000C3F800E0FCF7C0FA01210098FCF77AFA97
:1040C0002A6850211346916353F8342F02F03802C6
:1040D00003F580531A6003B030BD00BF24EE022008
:1040E0000080074090B202202940001098B20220C0
:1040F00010B50E490E4C0F480F4A104B0078216046
:104100000020022112781B78FCF732F902210120ED
:10411000FCF72EF94FF4E1312068FDF7C1FABDE854
:10412000104001210648FFF71DBE00BF00000740F8
:1041300024EE0220608D00105C8D0010588D001060
:1041400090250020024A034B10601960704700BFA1
:1041500094B202209CB20220184B70B51A68002A53
:1041600028D0EFF3108172B6D2E8CF4F0120002C97
:10417000FAD1C2E8440F002CF6D1BFF35F8F0022C2
:104180000F4C186859602270C0E88F2F81F3108897
:10419000002400250B4E3078FCF722FA20B90024C9
:1041A00000252046294670BD3078FCF729FA2046C4
:1041B000294670BD4FF47A740025EBE7E4B702207E
:1041C00043EE022042EE0220014B1878FCF718BAA9
:1041D00042EE022038B5044600200D4601F0A6FB51
:1041E000A8B3002001F0B8FB88B3FDF75DF94FF0EC
:1041F000FF3E6FF0004C174A821841F100039645CC
:104200007CEB03013CBF72466346134804F01CFA82
:10421000E8B1002001F08AFB58B901464FF0FF30A9
:1042200000F08EFD6FF002040B4804F0FDF920460B
:1042300038BD002001F090FB0028EED021462A4630
:10424000002001F093FB04460028EDD1EAE76FF06F
:104250000204ECE740420F0018EE022008B5FDF71B
:1042600023F94FF0FF3E6FF0004C0F4A821841F1E6
:10427000000396457CEB03013CBF724663460B4846
:1042800004F0E2F970B14FF0FF30002100F058FD6A
:10429000002001F0B1FB0028F5D1BDE8084003483B
:1042A00004F0C2B908BD00BF40420F0018EE022062
:1042B0002DE9F04107460E46FDF7F6F84FF0FF35C1
:1042C0006FF00044324A821841F10003954274EBCA
:1042D00003013CBF2A4623462E4804F0B5F908B92D
:1042E000BDE8F081002001F021FB002845D0002E20
:1042F0003EDD0025DFF8A48012E02246002001F018
:10430000C5FB002105444FF0FF3000F019FD0020EF
:1043100001F072FBFDF7C8F8C8E90001AE4227DDE5
:10432000002001F0D1FB741B8442A8BF0446791918
:10433000002CE2D121464FF0FF3000F001FD204675
:1043400001F05AFB204601F0F1FA88B1204601F055
:10435000BBFB0028E2D1FDF7A7F80F4AD8F80030E0
:104360009B18D8F8042042F1000283428A41D5D23A
:104370000848BDE8F04104F057B90020BDE8F0411D
:104380000021064BC3E90001024804F04DB900BF0B
:1043900040420F0018EE022020A10700D88E022014
:1043A00010B5002184B0324804F05EF928BB314BCF
:1043B0001A6802B3EFF3108172B6D2E8CFEF5FF064
:1043C000010CBEF1000FF8D1C2E84ECFBEF1000FD4
:1043D000F3D1BFF35F8FDFF8A8C0D3F800E09CF8FB
:1043E00000205960D3B201228CF80020CEE88F0F54
:1043F00081F31088CBB104B010BD00214FF0FF3025
:1044000000F09EFC002001F0A7FA0446184804F0D2
:104410000BF9002CEFD0184B1B68002BEBD0174A80
:10442000106804B0BDE810401847FCF7F1FD0446E1
:10443000FDF73AF84FF0FF3E6FF0004C10F57A723E
:1044400041F1000396457CEB030138BF63464FF012
:1044500000014FF0010C38BF7246DFF828E020461B
:10446000CDE9011CCDF800E0FCF7D6FD04B010BD8D
:1044700018EE0220E4B7022094B202209CB202207F
:1044800043EE0220594100104FF0504330B585B043
:104490001C68FCF7BDFDFCF7D9FEA04202D000204D
:1044A00005B030BD00212C4B08461B7801F0DCFC28
:1044B0002A480368002B4BD00120FCF723FB03465E
:1044C000274C2849C0B22370FCF7B6F820780121A8
:1044D000FCF770F80E20FCF79FF860BB224B6FF0E2
:1044E0000044C3E90000FCF793FD0546FCF7DCFF40
:1044F0004FF0FF3C10F57A7241F10003944574EBE4
:10450000030138BF23464FF000014FF0010438BFCC
:104510006246DFF860C02846CDE90114CDF800C03E
:10452000FCF77AFD0028BADB01211048FFF71AFCDE
:10453000012005B030BD0120FBF7F6FF01460A4817
:10454000FCF73EFB00220E200949FCF7A7F8EBE739
:10455000FCF71AFBB0E700BF648D001018EE0220D4
:1045600042EE0220A1430010E4B70220A82500205B
:10457000C94100105941001000487047D88B001005
:1045800000487047848B001000B51C4A0346117820
:1045900083B031B363B940F209424FF44173DFF89D
:1045A00060C0ACF802201648ACF8003003B000BD83
:1045B000052B20D8134ADFF848C052F82310604674
:1045C0000023013903E0132B20F8022F10D011F83B
:1045D000012F0133DBB2002AF5D15B0043F44073B5
:1045E000E1E701901121104600F024F8019BD1E78A
:1045F0004FF44A73D7E70020D8E700BF28EE022027
:10460000D8B202206C8B001000B545F247308BB059
:10461000FDF7ACFB01220346092101A89847DDE91B
:104620000332034912BA1BBAC1E900230BB000BD23
:104630000CBC0220012900F0BB80614A01391378CB
:104640004FEA231CBCF1090FCCBF0CF1370C0CF165
:10465000300C012980F800C000F0AD8003F00F039A
:10466000092B8CBF373330330229437000F0A3800D
:1046700053784FEA231CBCF1090FCCBF0CF1370C67
:104680000CF1300C032980F802C000F0948003F094
:104690000F03092B8CBF373330330429C37000F06C
:1046A0008A8093784FEA231CBCF1090FCCBF0CF130
:1046B000370C0CF1300C052980F804C07BD003F0D6
:1046C0000F03092B8CBF373330330629437172D067
:1046D000D3784FEA231CBCF1090FCCBF0CF1370C87
:1046E0000CF1300C072980F806C064D003F00F03EA
:1046F000092B8CBF373330330829C3715BD0137952
:104700004FEA231CBCF1090FCCBF0CF1370C0CF1A4
:10471000300C092980F808C04DD003F00F03092B95
:104720008CBF373330330A29437244D053794FEA70
:10473000231CBCF1090FCCBF0CF1370C0CF1300C71
:104740000B2980F80AC036D003F00F03092B8CBF69
:10475000373330330C29C3722DD093794FEA231CA1
:10476000BCF1090FCCBF0CF1370C0CF1300C0D294A
:1047700080F80CC01FD003F00F03092B8CBF373318
:1047800030330E29437316D0D3791A11092ACCBFBE
:10479000373230320F2982730DD003F00F03092B0B
:1047A00094BF303337331029C37318BF103002D091
:1047B000002303707047002308440370704700BF54
:1047C0000CBC0220704700BF0022014B1A707047DA
:1047D00040EE02204B79FF2B0BD1887948B9CB7979
:1047E000012B07D1082A05D9034B8A7809201A70B2
:1047F00070470020704700BF40EE02200120704744
:10480000012901D00120704708B5104B91881B7811
:10481000994201D0002008BD5378012B08D0022B0B
:10482000F8D1002164220846FDF720FA012008BDD6
:10483000518811F480721ABFC1F3C012480A4FF0B8
:10484000FF3001F00301FDF79DFA00BF40EE0220AA
:1048500000487047948C0010012907D15378012B30
:1048600002D19388072B03D00020704701207047A6
:104870001146A623014A00F01FBF00BFEC8B0010B9
:104880000346012201481A70704700BFB88C00101F
:1048900008B50B68B3F5966F00D008BD00224FF045
:1048A000FF301146FDF76EFA10B500F02DF90C231C
:1048B0001C4CFF22A3670E201B49FBF7EFFE402292
:1048C00000211A4803F0C4FE4FF0800C0120174A63
:1048D0000023A2F822C050701046402214490283DF
:1048E0000287144A81604360C2F88430C2F8803085
:1048F00080F8213080F83B3043620F4BC360C362C5
:10490000803B836203F098FE4FF0005C4FF48032EE
:1049100001200A490A4B2064C4F84CC0C4F8901026
:10492000DA6410BD0000115029040020D8B3022021
:1049300084001050000010500001105010D00100F1
:104940000020115001210E20FBF734BE0022024846
:10495000114600F0F9B800BFF8B30220044B1970FB
:1049600021B14FF40032034BC3F89020704700BFD1
:104970003DEE0220002011500B785B0600D07047FE
:104980004B78052BFBD14B88014ADBB21360F6E76D
:1049900000001150CB782DE9F04103F0030EBEF179
:1049A000010FC3F3010057D000268C78DFF8D4C084
:1049B00004F07F0253008988984603EBD4130CEB74
:1049C0004313E509D876C1F30A0185F001009C7014
:1049D00019835870DE70D3006DBB254804330CEB8F
:1049E00082141F18A7601E506AB3224B03EBC20348
:1049F00063603F318909BEF1020F14BF8B01CB0107
:104A00001D4908EB05020CEB421C0A681B481344C5
:104A100083420B60CCF80C2028D882F0A04383F4AA
:104A20008013DCF8042043EA8E6343F000431360F4
:104A30000120BDE8F0810E480CEB82140344A36210
:104A400040F832605AB913460D4A0CEB451CCCF8BD
:104A50000C20CCF80430EBE70020BDE8F081D20058
:104A600002F1A04202F580126262C2E7FDF7D4F9BA
:104A70008000105004001050E0B70220FF0F1050CB
:104A800000011050D8B3022003F0D6BD08B59646F9
:104A9000DFF81CC001F07F02C80900EB42000CEBFC
:104AA00040101A46714600F04FF8012008BD00BFC3
:104AB000D8B3022011F07F0205D100290CBF0220DB
:104AC0000120064B9866C909054B01EB420003EB38
:104AD00040104FF40062002103F0AABD00201150E5
:104AE000D8B3022011F07F0300D17047002205489F
:104AF0005B0003EBD11300EB43106FF40061C27055
:104B000003F096BDD8B302204FF0805209480A49FD
:104B100008B50A4B02600A609968C94311F08051D8
:104B2000FAD14FF48052064803F092FD0922054B5A
:104B30005A6708BD002002400030024000000240D9
:104B4000000010500000115000234FF0010C10B570
:104B5000016180F81AC08282C382044603F080FD9E
:104B600020B14FF40032074BC3F89020204603F0E9
:104B700087FD10B10123237710BD2046BDE810400A
:104B800003F076BD002011502DE9F0414FF00008F0
:104B90001B4C0546424623781A4F1B4E0DE03368E6
:104BA00013EB421323D0DB682846984708F101082D
:104BB00023785FFA88F2934206D39342A2EB030371
:104BC000EDD807EB4313EEE7542200210F4803F022
:104BD0003FFD4FF0FF330D4C2022C4E90133C4E9FF
:104BE0000333FF21BDE8F041094803F031BD4FF028
:104BF000E023D3F8F03DDB0700D500BEBDE8F0812F
:104C00003CEE0220D88C00106090022068910220B7
:104C10007C910220704700BF704700BF00207047A2
:104C200000207047704700BF704700BF704700BF4B
:104C3000704700BF024B5878003818BF01207047FA
:104C400068910220024B1878C0F38000704700BFC3
:104C5000689102202DE9F0472D4F3B78FF2B54D16E
:104C600000293DD054228A4681460021294803F07C
:104C7000EFFC0022284C294B20461A70FBF784FFDA
:104C8000274B28481C60284CFBF78CFF204601F07E
:104C9000DDFB264A264B146023B12648FFF7F0FDC2
:104CA000254B18604FF00008224C43462278234ED3
:104CB000214D0DE02A6812EB431311D05B687BB1E4
:104CC000984708F1010822785FFA88F3934211D8D7
:104CD0009342EFD39B1A06EB43135B68002BEFD193
:104CE0004FF0E023D3F8F03DDB0700D500BE0020F5
:104CF000BDE8F0875146484687F80090FFF7D4FD9D
:104D00000028EDD04846FFF71DFE0120BDE8F087E2
:104D1000DC25002068910220609102203EEE0220F6
:104D2000BC910220D4250020C0250020C091022083
:104D3000814800103CEE022060900220D88C0010C8
:104D4000A44B1B78FF2B00F012812DE9F04FA24CF1
:104D5000A24DDFF89C82A24E8BB027687B69EFF3EF
:104D6000108272B6D3E8CF0F01210028FAD1C3E830
:104D7000401F0028F6D1BFF35F8FBA61384607A9FC
:104D800001F0AAF900237A69C2E88F3FBB6983F377
:104D90001088002800F0C6809DF81D30013B072BCD
:104DA00000F28383DFE803F0A3AD91998A350A040A
:104DB000089B002BD1D009989847CEE79DF820108A
:104DC00001F07F0705EB470000EBD11090F834307D
:104DD00023F0010380F8343090F8343023F00403DA
:104DE00080F83430002F00F0A080027D98F8003069
:104DF0009A4280F08F807B4B1B6813EB421300F0CC
:104E00008A809F699DF82120099B9DF81C00B84766
:104E1000A3E73378002B7ED03378013B33703378AF
:104E200003F0FF00002B98D1DFF8B0A19DF81CB073
:104E30009AF8003043F001038AF800309AF83430D1
:104E400060F300038AF834309AF8343060F3820358
:104E50008AF834309AF8353060F300038AF8353038
:104E60009AF8353060F382038AF8353000F088FC18
:104E70009DF8203003F06002602A66D0402A77D087
:104E800003F01F03012B00F0B580022B7CD0002B18
:104E90005BD1202A00F0E781002A56D19DF821300D
:104EA000092B52D8DFE813F0AB019B015100BD0183
:104EB00051008C01620151005601E7002B78D9079F
:104EC0007FF54BAFFFF7B4FE47E7EB78DA077FF5E6
:104ED00044AF0898FFF7A0FE3FE72B78D8077FF58F
:104EE0003CAF2878C0F3C000FFF7A0FE35E79DF87F
:104EF0001C00FFF749FE00F039FC9DF82030AB7034
:104F00002BE79DF81C00FFF73FFE00F02FFCFFF79A
:104F10008BFE22E711D04FF0E023D3F8F03DDC0701
:104F200000D500BE0BB0BDE8F08F099B9DF8212095
:104F30009DF81C0000F038FC0FE72B4B61E7FFF7F2
:104F40001FFB0246002840F085814FF0E023D3F894
:104F5000F03DDF0700D500BE9DF81C000021FFF7E3
:104F6000A9FD80219DF81C00FFF7A4FDF5E6704720
:104F70001E4800F005FC0121584608AAFFF76CFC0A
:104F800000287FF4EAAEE7E79DF8241011F0700FD7
:104F9000DBD1174801F07F0390F800C00AEB430013
:104FA00000EBD110007D604551D340F06E810E487A
:104FB0000090002A00F06D81009F786900F0E0FB0E
:104FC000012158467B6908AA984700287FF4C5AE9E
:104FD000C2E700BFDC250020C091022068910220BA
:104FE0003EEE022060900220D88C0010594800103C
:104FF0003CEE02209DF824300F2BADD8B14A53442B
:105000001B791278934230D3A6D1AF4F786900F064
:10501000B7FB012158467B6908AA984700287FF40E
:105020009CAE9DF8203013F0600795D19DF821309B
:105030000A3B012B90D800F0A3FB9DF821300A2BEE
:1050400000F00D82584608A900F01AFB85E6DFF84B
:105050007CC2DCF800C00CEB40100090002A00F08D
:10506000188100283FF478AFA6E7984A176817EB35
:105070004317CBD170E79AF801209DF82230934274
:1050800000F05D819AF80120002A40F0D2818AF870
:105090000130002B00F05181013BD8B2FFF770FACC
:1050A000002800F06E814378022B40F06A81C279BB
:1050B0009AF80010C2F340131B01C2F3801221F0D2
:1050C000300143EA42130B438AF80030438800F171
:1050D0000901C3180293029B8B4240F2BD814B78B9
:1050E0000B2B00F0C6810120042B40F04A810022E6
:1050F000029B01925B1A1FFA83F9724B00921B7894
:1051000003901EE0714B1B6813EB421300F03981D2
:105110001F694A46584605910493B847019B0828E1
:1051200003F101030599019303D98145049B80F0A4
:105130000B81644B9DF804201B7800929342C0F0D1
:105140002081009A9342A2EB0303DBD85E4A02EB74
:105150004313DDE79AF8013058468DF81A300DF107
:105160001A02012308A900F0A7FAF6E5BDF822000B
:10517000030A5A1EC0B20E2A3FF6EEAE01A151F844
:1051800022F000BFB553001043520010F15300103D
:10519000594F0010594F0010D353001043520010C4
:1051A000594F0010594F0010594F0010594F00101F
:1051B000594F0010594F0010594F0010A7530010BD
:1051C00008A800F0E3FA58469DF82210FFF7BEFB4E
:1051D0009AF8003043F002038AF80030BDE5BDF8CC
:1051E0002230012B7FF4B8AE9AF80030584623F0F5
:1051F000080308A98AF8003000F042FAADE55846E5
:105200009AF800309A0802F00202C3F340131343E5
:10521000ADF81A300DF11A02022308A900F04CFA79
:105220009BE5BDF82230012B7FF496AE9AF8003052
:10523000584643F0080308A98AF8003000F020FA25
:105240008BE5022B3FF47BAEFFF7EAFC0246002819
:105250003FF482AE5846538808A900F02DFA002882
:105260007FF47BAD78E69DF824300F2B3FF674AECB
:10527000144A53441B79127893421ED2134A17687A
:1052800017EB43177FF499AE66E6002A7FF464AE0D
:1052900000929DF821C00CF0FD02012A18D0BCF14B
:1052A000000F7FF452AE0AEB430303EBD11393F8E4
:1052B00034305846C3F34003AAE77FF44DAE024FA3
:1052C0007BE600BF3CEE0220D88C001060900220EC
:1052D000BDF82220DAB97948BCF1010F007800F05E
:1052E0008F80CDE90113FFF7E5FB029B01990AEBE3
:1052F000430303EBD11393F8342042F0020283F806
:10530000342093F8342042F0010283F83420009BCB
:10531000002B3FF422AD1F46586900F031FA7B693B
:10532000012108AA58469847002000F029FA9AF867
:105330003530DB073FF511AD84E6FFF775FC5846C5
:1053400008A900F09DF908E502460398012800F03D
:10535000A580002800F09280002391F802E007E089
:10536000009F8CF804705FFA83FC604540F28680F1
:105370000EEB030C5AFA8CFC9CF804700133FF2FDF
:10538000EED04FF0E023D3F8F03DD90700D500BEB2
:105390004FF0E023D3F8F03DDA0700D500BE00233C
:1053A0008AF80130D8E5FFF753FA024600287FF467
:1053B00051AFD1E5FFF7E0F8024600283FF4C5AD54
:1053C0005846122308A900F077F900287FF4C5ACED
:1053D000C2E5FFF723FC024600283FF4BDAD584666
:1053E000137808A900F068F900287FF4B6ACB3E59B
:1053F000BDF82410FFF7C8F802460028EFD1ABE54E
:10540000CDE902320191FFF76DFB029B01990AEB96
:10541000430303EBD11393F83410039A62F3410171
:1054200083F8341093F8341062F3000183F83410D9
:105430006DE7002158460193FFF790FA5846FFF7B1
:1054400023FB9AF8022058460092FFF79DFB009A32
:10545000019B8AF802201AE6FFF7E4FB6FE7584643
:10546000012308A90DF11A028DF81A7000F024F931
:1054700073E40B78C87819444B7835E6009F1048E0
:105480003B46CDE9001200F0A1FDDDE90012114418
:105490000C4A1378BB42BFF41EAE72E7D3F810C0BB
:1054A000094B9C4508BF022056E74FF0E023D3F894
:1054B000F03DDB077FF551AC00BE4EE4DC2500205B
:1054C0007C9102203CEE0220D15B00102DE9F84FC8
:1054D0000A9F002A40D00C461E4615464FF0000B8E
:1054E000DFF88090DFF8808016E0204698F8021000
:1054F00099F800A000F03AFDD0B121465046FFF7E0
:1055000049FAE0B1A3780BF1010BDA0920D1AB45E0
:105510003B7021D023781C446378052B0FD1E178B0
:1055200001F00301B1420AD1A37813F0700FDCD06F
:105530004FF0E023D3F8F03DDA0700D500BE4FF07E
:10554000E023D3F8F03DDB0709D40020BDE8F88F55
:105550000B9AAB451370DDD10120BDE8F88F00BE7A
:10556000F3E700BFDC250020689102208B7813F060
:10557000700F08D04FF0E023D3F8F03DDA0700D5E4
:1055800000BE0020704710B582B0084601910C495A
:105590000C4A8978147800F0E9FC48B94FF0E02310
:1055A000D3F8F03DDB0700D500BE002002B010BDEF
:1055B0002046019902B0BDE81040FFF7EBB900BFEB
:1055C00068910220DC2500200A46064B064819682F
:1055D000D309343302F07F0203EB4203184400F096
:1055E00079BC00BFBC910220689102200A46064B9C
:1055F00006481968D309343302F07F0203EB4203F3
:10560000184400F097BC00BFBC91022068910220B2
:1056100010B5194801F07F0400EB440000EBD110F5
:1056200090F834C01CF0010F08D04FF0E023D3F8FD
:10563000F03DDA0700D500BE002010BD00F13004B7
:1056400094F804C00D484CF0010C007884F804C0B4
:10565000FFF71CFA0028F0D14FF0E021227960F327
:1056600000022271227960F382022271D1F8F03DAA
:10567000DB07E1D500BEDFE768910220DC250020D2
:10568000DFF830C00023624610B58E460446086835
:105690004968CCF80C3003C29EF800102046BDE8E3
:1056A000104081F0FF011A4601F08001CCF808306B
:1056B000FFF7AEBF28910220DFF8ACC070B51546E9
:1056C000624600248E4606460868496882B003C2D6
:1056D000CCF80850ACF80E40BEF80620934228BF24
:1056E0001346ACF80C308AB133B3DDB19CF900201D
:1056F000402B28BF4023002A29DB21463046194A87
:10570000FFF786FF70B1012002B070BD9EF8001057
:10571000134681F0FF01304601F08001FFF778FF6A
:105720000028F0D14FF0E023D3F8F03DDB0700D59F
:1057300000BE002002B070BD1A469CF8001001F0B7
:1057400080013046FFF764FF0028DCD1EAE71A4603
:1057500029460448019302F073FF8021014A019B0E
:10576000EFE700BFE8900220289102200022034BBF
:10577000C3E90022C3E902221A617047289102207E
:10578000014B1861704700BF289102200146054A6D
:105790004FF0000C134600684968C2E902CC03C30D
:1057A000704700BF2891022030B53E4CC9092278CD
:1057B0000546B1EBD21F83B017D053B14FF0E023B1
:1057C000D3F8F03DDB0702D4002003B030BD00BEAB
:1057D000FAE72146FFF7D0F823691BB122460321DF
:1057E00028469847012003B030BD94F90020002AD4
:1057F00008DBA0680028E7D01A462B49019302F085
:105800001FFF019BE089A168E288184480B2194417
:105810008242E081A16016D03F2B14D9A28994F96D
:105820000040131A9BB2402B28BF4023002C28DBDA
:1058300090424FF0000132D01B4A2846FFF7E8FEA5
:105840000028CFD1BAE7236923B102212846154A9F
:10585000984768B100232178284681F0FF011A4655
:1058600001F08001FFF7D4FE0028A7D00120BAE79D
:1058700001462846FFF71EF980212846FFF71AF94E
:10588000B0E7904208D01A460748019302F0D8FECC
:105890008021054A019BD0E780210022CDE70A46FE
:1058A000CBE700BF28910220E890022070B582B0BB
:1058B0000446FFF7BFF908B902B070BDFFF7C2F99F
:1058C00002460028F8D1C82304FB03F315492546F6
:1058D000CC18E0780028EFD010335E1830460192E3
:1058E00000F0E8FB3F28E7D9E1780198FFF76CFE6C
:1058F0000028E1D0304600F0DDFB3F28E1780AD9EE
:105900004023DFF824C001980CEBC51202B0BDE8BB
:105910007040FFF77DBE019802B0BDE87040FFF710
:1059200065BE00BF182C00206490022010B504460C
:10593000FFF780F908B9002010BDFFF783F90028B0
:10594000F9D1C822034B02FB0433187900F001009F
:1059500010BD00BF182C0020C82208B5024B02FB66
:10596000003000F08DFB08BD282C00204FF6FF739F
:105970002DE9F041C8249A4228BF1A4600FB04F4DE
:105980001B4D04F1100382B0804692B258195F1982
:1059900000F0F0FB0646FFF74DF918B9304602B0AB
:1059A000BDE8F081FFF74EF90028F7D12544EA78E9
:1059B000002AF3D00190384600F07CFB3F28EDD957
:1059C0000198E978FFF700FE0028E7D0384600F09C
:1059D00071FB3F28E97807D9064A4023019802EB7A
:1059E000C812FFF715FED9E70198FFF7FFFDD5E7CD
:1059F000182C002064900220F0B583B00546FFF714
:105A000019F910B9002003B0F0BDFFF71BF90446E7
:105A10000028F7D1C82305FB03F31A4A03F1240138
:105A20008F183846009300F02BFB0028EAD0154A67
:105A3000009B2046D618B178FFF7C6FD0028E1D0BC
:105A40001149384601EBC5114022009100F092FB4C
:105A500096F802C0034670B1019061462046009A54
:105A6000FFF7D6FD58B94FF0E023D3F8F03DDB0740
:105A7000C8D500BEC6E76146FFF7B8FDC2E701988A
:105A8000C1E700BF182C0020A490022070B5054685
:105A90004FF6FF70C823824228BF0246094C92B2DB
:105AA00003FB0544204600F029FC0646204600F092
:105AB000E7FA3F2801D8304670BD2846FFF79CFF23
:105AC000304670BD3C2C0020C82208B5024B02FBBA
:105AD000003000F0EFFA08BD3C2C002070B5002427
